:020000040800F2
:10000000180A002001010008CF120008D1110008D1
:10001000CD1200086D0100083D1900080000000025
:10002000000000000000000000000000F9140008BB
:10003000B301000800000000F7140008FB140008DA
:100040001B0100081B0100081B0100081B01000820
:100050001B0100081B0100081B0100081B01000810
:100060001B0100081B0100081B0100081B01000800
:100070001B0100081B010008710100087D01000838
:100080001B0100081B0100081B0100081B010008E0
:100090001B0100081B0100081B0100081B010008D0
:1000A0001B0100081B0100081B0100081B010008C0
:1000B0001B0100081B0100081B0100081B010008B0
:1000C0001B0100081B0100081B0100081B010008A0
:1000D0001B0100081D1900081B0100081B01000876
:1000E0001B0100081B0100081B010008DFF80CD0F1
:1000F00000F02AF800480047191C0008180A0020E0
:100100000648804706480047FEE7FEE7FEE7FEE7B1
:10011000FEE7FEE7FEE7FEE7FEE7FEE75D15000807
:10012000ED000008D2B201E000F8012B491EFBD21D
:1001300070470022F6E710B513460A4604461946F2
:10014000FFF7F0FF204610BD064C074D06E0E068C3
:1001500040F0010394E8070098471034AC42F6D30E
:10016000FFF7C8FFB41C0008D41C0008FEE700001D
:10017000014800F091B80000D4000020014800F0D0
:100180008BB800009000002030B590F8405001245A
:10019000AC40C56B6C60046863604368102B0368F7
:1001A00003D099600068C26030BD9A600068C16089
:1001B00030BD704772B6FEE710B590F821100022EE
:1001C000022905D00421816380F82020012010BD80
:1001D00001680B6823F00E030B6001680B6823F0C5
:1001E00001030B6090F84030C46B012101FA03F366
:1001F000636080F8211080F82020104610BD0000B8
:1002000010B590F821100024022903D00421816345
:1002100001243DE001680A6822F00E020A600168CC
:100220000A6822F001020A601A4A0168914201D16B
:10023000012121E0174A1432914201D110211BE023
:10024000144A2832914201D1891515E0114A3C32F5
:10025000914201D189140FE00E4A5032914202D1ED
:100260004FF4803108E00B4A6432914202D14FF4DE
:10027000801101E04FF08071064A083A5160012177
:1002800080F82110002180F82010416B01B18847CF
:10029000204610BD080002402DE9F05FC16B0C68DC
:1002A00001680B68D0F840C0042202FA0CF2494DF4
:1002B000DFF824A1494E4A4FDFF828B1DFF828E1E2
:1002C00022422CD05A072AD50A68920603D40A681B
:1002D00022F004020A600168A94201D1042219E057
:1002E000514501D1402215E0B14202D14FF4806264
:1002F00010E0B94202D14FF480420BE0594502D1DF
:100300004FF4802206E0714502D14FF4800201E0F3
:100310004FF080622F4908394A60C16A3BE04FF0D4
:10032000020808FA0CF818EA040F4FF000094FF021
:10033000010235D05FEA837832D50B689B0605D47D
:100340000B6823F00A030B6080F821200168A942A2
:1003500001D1022219E0514501D1202215E0B1421C
:1003600002D14FF4007210E0B94202D14FF40052B2
:100370000BE0594502D14FF4003206E0714502D13D
:100380004FF4001201E04FF00072124908394A6040
:1003900080F82090816A00291AD0BDE8F05F0847F4
:1003A000082505FA0CF5254212D01B0710D50B685D
:1003B00023F00E030B6090F84010C36B02FA01F1BA
:1003C0005960826380F8212080F82090016BE2E779
:1003D000BDE8F09F080002401C00024030000240CF
:1003E00044000240580002406C00024030B528B37F
:1003F00008C8134914221944B1FBF2F18900C16302
:1004000010498163022141771A6843F6F0718A43EB
:10041000D0E900142143D0E902452C43214304696B
:100420002143446921438469214311431960002118
:100430004163012242770177084630BD012030BD7B
:10044000F8FFFDBF0000024070B5044690F82000A0
:10045000002501280CD0012084F8200094F82160A8
:100460000020012E06D084F820000225284670BD09
:10047000022070BD022684F82160A063206806680F
:1004800026F0010606602046FFF77EFEE06A00289F
:100490002068016802D041F00E0106E021F004015D
:1004A00001602068016841F00A010160206801686C
:1004B00041F001010160D9E72DE9F84FDFF8B8916B
:1004C0000024A9F1040B23460F2709F1040AABF11C
:1004D000040EC9E00125A5402A40AA427DD1674EFD
:1004E000D1F804C0ACEB0608B44532D014DCBCF142
:1004F000030F3AD009DCBCF1000F2AD0BCF1010F88
:100500001CD0BCF1020F31D11DE0BCF1110F17D08E
:10051000BCF1120F2AD119E0B8F5881F19D006DCFA
:10052000B8F5803F15D0B8F5801F1FD111E0B8F5A0
:10053000001F0ED0B8F5041F18D10AE0CB6815E0F3
:10054000CB681B1D12E0CB6808330FE0CB680C337F
:100550000CE08B682BB1012B4FF0080303D04561F1
:1005600004E0042302E0056100E00023FF2A01D833
:10057000064601E000F104064FEA840501D9A5F121
:100580002005D6F8008007FA05FC28EA0C0803FAD3
:1005900005F548EA0508C6F800804D68ED0062D50B
:1005A000374DAE6946F00106AE61AD6924F0030631
:1005B00005F001050095334D06EB050CDCF80850FD
:1005C000A607360F07FA06F825EA0805DFF8B8800F
:1005D000404503D14FF0000817E044E0DFF8AC805D
:1005E000404502D14FF001080FE0DFF8A4804045FC
:1005F00002D14FF0020808E0DFF89880404502D1B0
:100600004FF0030801E04FF0040808FA06F848EA42
:100610000508CCF808804D68D9F80060ED024D4619
:1006200001D5164300E096432E604D68DAF800606D
:10063000AD02554601D5164300E096432E604D6845
:10064000DBF80060AD035D4601D5164300E096433C
:100650002E604D68DEF80060ED03754601D5164347
:1006600000E096432E60641C0D682A46E5407FF446
:1006700031AFBDE8F88F0000080401400000111000
:10068000001002400000014000080140000C014041
:1006900000100140001401408068084000D0012093
:1006A00070470AB1016170470904FBE7014880689F
:1006B0007047000000000020024881680278114461
:1006C0008160704700000020074810B5016841F0C4
:1006D00010010160032000F075F80F2000F006F80B
:1006E00000F024F8002010BD0020024070B50D4D30
:1006F00004464FF47A712878B1FBF0F00A49096892
:10070000B1FBF0F000F0DCFA48B9102C07D200225F
:100710002146501E00F036F800206C6070BD0120AC
:1007200070BD0000000000200C0000200C4808B53F
:10073000816941F001018161816901F0010100914C
:10074000C16941F08051C161C06900F080500090E2
:100750000448416821F0E06141F00071416008BD4A
:100760000010024000000140002809DB00F01F02D9
:10077000012191404009800000F1E020C0F8001103
:1007800070470000F0B40E4B1B680C46C3F3022305
:10079000C3F10705042D00D90425191D072901D22D
:1007A000002300E0DB1E012606FA05F1491E214068
:1007B00099409E40761E16403143F0BC01F0BFB810
:1007C0000CED00E0064900F0070208684FF6FF0351
:1007D000184040EA0220034A1043086070470000B6
:1007E0000CED00E00000FA052DE9F0470F4605008A
:1007F00061D0434E306800F00700B84209D230683B
:1008000020F0070038433060306800F00700B8423D
:1008100051D128683B4C810712D5400703D5606849
:1008200040F4E06060602878000703D5606840F419
:10083000605060606068A96820F0F0000843606064
:100840002878C00728D06868012810D021680228BD
:1008500010D0890700292EDA616821F003010143D5
:100860006160FFF723FF804641F288390DE021687F
:100870008903EFE78901EDE7FFF718FFA0EB080117
:10088000494502D90320BDE8F0876068696800F037
:100890000C00B0EB810FEFD1306800F00700B842D8
:1008A0000BD9306820F0070038433060306800F022
:1008B0000700B84201D00120E5E72878400705D5B8
:1008C0006068E96820F4E060084360602878000709
:1008D00006D56068296920F4605040EAC100606074
:1008E00000F038F86168084AC1F30311515CC84050
:1008F0000649086006480068FFF7F8FE0020C2E7D6
:1009000000200240001002409A1C00080C00002049
:10091000040000200448054900684968044AC1F3FE
:100920000221515CC84070470C00002000100240BA
:10093000AA1C00080448054900684968044AC1F334
:10094000C221515CC84070470C00002000100240DA
:10095000AA1C00080E4A51680E4801F00C03042B33
:1009600011D0082B0FD10C48C1F38343C903C05CDD
:100970000AD55168084AC1F34041921E515C054AAC
:100980005043B0FBF1F07047044948437047000002
:100990000010024000127A008A1C000800093D0085
:1009A0002DE9F84F040070D02078C04DC00749D021
:1009B0006868C0F38100012807D06868C0F381002F
:1009C000022809D16868C00306D52868800339D594
:1009D00060680028E7D035E06068B0F5803F0BD054
:1009E00010B1B0F5A02F11D0286820F48030286015
:1009F000286820F4802002E0286840F480302860D5
:100A0000606890B1FFF752FE06460AE0286840F49D
:100A100080202860F0E700BFFFF748FE801B6428B5
:100A200073D828688003F7D50CE0FFF73FFE064631
:100A300005E000BFFFF73AFE801B6428F0D8286865
:100A40008003F7D420789A4E80074FF001094FF0C9
:100A5000000839D5686810F00C0F07D06868C0F33B
:100A60008100022809D16868C00306D4286880077D
:100A700014D52069012808D110E02069B0B1C6F86A
:100A80000090FFF713FE074605E00AE1FFF70EFEB0
:100A9000C01B0228C4D828688007F7D52868616978
:100AA00020F0F80040EAC10028600DE0C6F80080A0
:100AB000FFF7FCFD074604E0FFF7F8FDC01B022826
:100AC00023D828688007F7D4207800072CD57948E8
:100AD000A169D9B1C0F80090FFF7E8FD074604E02E
:100AE000FFF7E4FDC01B02280FD8686A8007F7D51E
:100AF00071484FF4FA510068B0FBF1F0009000BF6C
:100B00000098411E0091FAD20EE080E0C0F800800B
:100B1000FFF7CCFD074604E0FFF7C8FDC01B022825
:100B200075D8686A8007F7D42078400760D5E869EF
:100B30000027C00008D4E86940F08050E861E86907
:100B4000012700F0805000905C480168C90513D46B
:100B50000168834641F480710160FFF7A7FD82467A
:100B600006E000BFFFF7A2FDA0EB0A0064284ED804
:100B7000DBF80000C005F5D5E06801280AD008B10F
:100B8000052813D0286A20F001002862286A20F086
:100B9000040002E0286A40F001002862E06841F2A7
:100BA000883B98B1FFF782FD82460BE0286A40F04F
:100BB00004002862EEE700BFFFF778FDA0EB0A0112
:100BC00059455AD8286A8007F6D50CE0FFF76EFD24
:100BD000824605E0FFF76AFDA0EB0A0159454CD8B3
:100BE000286A8007F6D41FB1E86920F08050E861D8
:100BF000E06988B36968C1F38101022944D0022801
:100C0000C6F8608004D0FFF751FD044638E034E0B8
:100C1000FFF74CFD074604E0FFF748FDC01B022824
:100C20002BD828688001F7D4206AB0F5803F05D121
:100C30006868A16820F4003008436860D4E90801BE
:100C40000843696821F4741108436860C6F860902D
:100C5000FFF72CFD044606E025E000BFFFF726FD68
:100C6000001B022809D828688001F7D51BE000BFC7
:100C7000FFF71CFD001B022802D90320BDE8F88FF6
:100C800028688001F4D40EE00128F7D06868226A51
:100C900000F48031914204D1616A00F470108842FE
:100CA00001D00120EAE70020E8E700000010024040
:100CB00000004242800442420C00002000700040CC
:100CC00010B5401EB0F1807F01D3012010BD4FF060
:100CD000E02460610F21601700F031FE0020A06168
:100CE00007202061002010BD38B5044690F842006E
:100CF000202801D0022038BD61B15AB10120206303
:100D000000206063204600F0C1FD0028F3D1216B74
:100D1000012901D0012038BD21680A684968009185
:100D200021680C3151E8002F42F0100241E8002305
:100D3000002BF5D138BD0000084988420CD1084885
:100D4000006840680749C0F1FF00C2B20120087086
:100D50000549024800F0FEB9704700004800002035
:100D600090000020100000201805002070470000AF
:100D7000F8B5016804460868CA684B6910F00F0F9F
:100D80004FF0000559D003F0010602F49077374385
:100D900065D0C10705D0D10503D5616C41F00101D3
:100DA0006164410705D5D90703D0616C41F00201A8
:100DB0006164810705D5D90703D0616C41F0040156
:100DC0006164010707D502F02001314303D0616C53
:100DD00041F008016164616C00293AD0800604D5B5
:100DE000900602D5204600F094FC20684069616CB2
:100DF000C0F38010090700D460B3204600F054FC13
:100E000020684069400621D52068143050E8001F52
:100E100021F0400140E80012002AF5D1E06BA8B1B2
:100E20006D494163E06BFFF7EBF9002811D0E06BEF
:100E3000416B01B0BDE8F040084783060FD593062B
:100E40000DD52046BDE8F84000F063BC2046FFF712
:100E50008DFFF8BD2046FFF789FF6564F8BD266B5E
:100E60002023012E7CD1C6067AD5D60678D508680F
:100E70004868009048694FF00206400640D5E16B93
:100E8000086840680004000CE8D0A28D8242E5D9D1
:100E9000E085886920282DD020680C3050E8001F9C
:100EA00021F4807140E80012002AF5D12068143046
:100EB00050E8001F21F0010140E80012002AF5D19E
:100EC0002068143050E8001F21F0400140E8001273
:100ED000002AF5D184F84230256320680C3050E8B0
:100EE000001F21F0100140E80012002AF5D1E06B4C
:100EF000FFF762F96663A08DE18D401A81B22AE0A6
:100F0000A08DE18D401A81B2E08D0028A6D0002985
:100F1000A4D022680C3252E8000F20F4907042E80E
:100F20000007002FF5D12068143050E8002F22F080
:100F3000010240E80027002FF5D184F842302563F4
:100F400020680C3050E8002F22F0100240E8002307
:100F5000002BF5D166632046FFF7EEFEF8BDFFE7F4
:100F600005062BD5150629D594F841002128F5D181
:100F7000A068B0F5805F01D12069B0B1206A411C42
:100F80002162216800784860E08C401E0004000C5B
:100F9000E084E3D12068C16821F08001C16020684D
:100FA000C16841F04001C160D8E7206A0088C0F301
:100FB00008004860206A801C2062E5E74006CDD525
:100FC0005006CBD5CA68204622F04002CA6084F899
:100FD000413000F0FBF8C1E75F15000870B5040070
:100FE00004D094F84100002510B106E0012070BD46
:100FF00084F84050204600F023F8242084F8410073
:101000002068C16821F40051C160204600F0E2FB75
:101010002068016921F4904101612068416921F053
:101020002A0141612068C16841F40051C1606564D2
:10103000202084F8410084F842006563002070BDE0
:10104000F0B585B000240646009401940294039400
:1010500000682D49884254D12C48816941F480416F
:101060008161816901F480410491816941F0040149
:1010700081618069264D00F0040004904FF40070F7
:101080000090022001900320039069462846FFF754
:1010900013FA2815CDE90004694628460294FFF7A3
:1010A0000BFA1D4D1B488027C5E90004C5E902471E
:1010B0002C616C61AC612846EC61FFF797F908B1CF
:1010C000FFF778F8F5636E62134D12484435143813
:1010D00001C5102091C5104845F8104944306C6195
:1010E000AC61EC61FFF782F908B1FFF763F8B56313
:1010F0000022114625206E62FFF744FB2520FFF7F2
:1011000033FB05B0F0BD0000003801400010024084
:101110000008014058000240900000200849884221
:101120000CD1084901204870074800684068074909
:10113000C0F1FF00C2B2024800F00CB870470000D6
:10114000480000201000002090000020180500201A
:101150007047000070B5044690F84100202801D087
:10116000022070BD49B342B32162A284E284002010
:101170006064212384F84130A56B114BAB62A56BF1
:10118000104BEB62A56B104B2B63A36B5863256868
:1011900013462A1DA06BFFF757F921686FF0400036
:1011A00008602068143050E8001F41F0800140E8DA
:1011B0000012002AF5D1002070BD012070BD000092
:1011C0005D1600089F1600086F15000870477047ED
:1011D000FEE700000D4808B5416941F00101416199
:1011E0004069002200F00100009011460E20FFF738
:1011F000C9FA0E20FFF7B8FA002211460F20FFF7B8
:10120000C1FABDE808400F20FFF7AEBA0010024057
:1012100030B585B0002000900190029003901B48EB
:10122000816941F010018161816901F0100104912F
:10123000816941F020018161816901F020010491FF
:10124000816941F004018161816901F00401049127
:10125000816941F00801816180690D4D00F008004D
:101260004FF440740490012221462846FFF719FAF2
:101270001120CDE900400120029002200390694630
:101280002846FFF719F905B030BD000000100240F4
:10129000000C01400C4810B50A4901604FF4E131DF
:1012A0004160002181600C22C160C0E904128161AB
:1012B000C161FFF793FE002803D0BDE81040FEF7A0
:1012C00079BF10BD0038014048000020FEE7FEE76E
:1012D00010B50021074C0A46002004EBC1131A5434
:1012E000401CC0B28028FAD3491CC9B20829F3D3E4
:1012F00010BD00001801002010B500204FF47A72D4
:101300000021491C9142FCD3401C9042F8D301209B
:1013100000F0B0F8BDE81040012000F0B7B870B59B
:1013200000240646802525FA04F0304000D0012034
:1013300000F0ACF8012000F09DF8002000F09AF8D1
:10134000641CE4B2082CEED3012000F093F8BDE851
:101350007040002000F08EB810B5012000F096F823
:10136000012000F087F8002000F090F8BDE8104060
:10137000002000F07FB810B5002000F087F80120B1
:1013800000F078F8BDE81040012000F07FB810B5FB
:10139000FFF7B2FFAE2000F085F8D52000F082F80C
:1013A000802000F07FF8A82000F07CF83F2000F0BB
:1013B00079F8D32000F076F8002000F073F8402090
:1013C00000F070F8A12000F06DF8C82000F06AF875
:1013D000DA2000F067F8122000F064F8812000F0B5
:1013E00061F8CF2000F05EF8D92000F05BF8F12022
:1013F00000F058F8DB2000F055F8302000F052F8EB
:10140000A42000F04FF8A62000F04CF88D2000F04A
:1014100049F8142000F046F8AF2000F043F8FFF739
:1014200057FFBDE8104000F011B810B50C4640F071
:10143000B00000F037F8102040EA141000F032F845
:1014400004F00F00BDE8104000F02CB870B5084D56
:10145000002400212046FFF7E8FF05EBC41080219F
:1014600000F031F8641CE4B2082CF2D370BD000027
:1014700018010020044B4FF4807108B1012200E0F4
:1014800000221846FFF70DB9000C0140044B4FF441
:10149000007108B1012200E000221846FFF701B9EF
:1014A000000C014010B50446FFF756FF7820FFF707
:1014B00036FF0020FFF733FF2046FFF730FFBDE87F
:1014C0001040FFF758BF70B50D460646FFF744FFC2
:1014D0007820FFF724FF4020FFF721FF002404E0DD
:1014E000305DFFF71CFF641CE4B2AC42F8D3BDE8EA
:1014F0007040FFF740BF70477047FFF7DDB830B569
:101500008FB028216846FEF714FE14210AA8FEF7C2
:1015100010FE01210804CDE90010002402940225E8
:101520000491CDE907504FF4E01009906846FFF7A9
:1015300037FA08B172B6FEE70F20CDE90A054FF47D
:101540008060CDE90C4002210AA80E94FFF74CF907
:10155000002801D072B6FEE70FB030BD704710B55D
:10156000406A0021C185C184FFF700FC10BD70B541
:10157000446A2068406994F84110C0F3C010002507
:10158000212904D118B1E584204600F0B4F8206880
:10159000406994F84210C0F38010222904D118B198
:1015A000E585204600F080F8606C40F01000606433
:1015B0002046FFF7DBFB70BD10B50146406A0968A5
:1015C00009684FF0000289062ED4C28501680C31EB
:1015D00051E8003F23F4807341E80034002CF5D13A
:1015E0000168143151E8003F23F0010341E8003461
:1015F000002CF5D10168143151E8003F23F040037D
:1016000041E80034002CF5D1202180F84210016B14
:10161000012909D101680C3151E8003F23F0100382
:1016200041E80034002CF5D14263016B012902D05E
:10163000FFF774FD10BD818DFFF77EFB10BD10B567
:10164000406A01214163016B012902D0FFF780FD4F
:1016500010BD818D4908FFF76FFB10BD10B5014625
:10166000406A09680968890616D40021C1840168A6
:10167000143151E8002F22F0800241E80023002BB2
:10168000F5D101680C3151E8002F42F0400241E8E9
:101690000023002BF5D110BDFFF798FD10BD10B54C
:1016A000406AFFF794FD10BD01680C3151E8002F2E
:1016B00022F4907241E80023002BF5D10168143127
:1016C00051E8002F22F0010241E80023002BF5D160
:1016D000016B012909D101680C3151E8002F22F07A
:1016E000100241E80023002BF5D1202180F84210A0
:1016F00000210163704701680C3151E8002F22F08E
:10170000C00241E80023002BF5D1202180F84110D0
:10171000704708B590F84210222901D0022008BD78
:1017200082684FF480539A4201D1016921B1816AE4
:101730009A421BD04AB10AE00268816A5268C2F339
:1017400008020A80816A891C08E0026972B1026895
:10175000526802F07F020A70816A491C8162C18D61
:10176000491E0904090CC18503D01BE002685268B8
:10177000F1E70168CA6822F02002CA600168CA68FD
:1017800022F48072CA6001684A6922F001024A614B
:10179000202180F8421000214163026B012A03D00E
:1017A000FFF7BCFC002008BD016301680C3151E863
:1017B000002F22F0100241E80023002BF5D1016830
:1017C0000A68D20602D50A6849680091818DFFF740
:1017D000B3FAE7E770B5044600680169E26821F4EE
:1017E0004051114301612169A068084361690843C0
:1017F0002168CA6841F20C639A430243CA602068B8
:101800004169A26921F44071114341611E49206878
:10181000884202D1FFF78EF801E0FFF77BF800EB7A
:10182000C00101EB0012606864218000B2FBF0F39C
:10183000B3FBF1F36FF018067343B2FBF0F5B2FBA4
:10184000F0F605EB8305322303EB0515B5FBF1F547
:10185000B6FBF1F605F0F00505EB0615B2FBF0F668
:10186000B2FBF0F0B0FBF1F06FF01802504306EB62
:10187000800003EB0010B0FBF1F0216800F00F00D6
:101880002844886070BD00000038014038B581628E
:1018900004468285002013466064222284F8422098
:1018A000E56B1B4AAA62E56B1A4AEA62E56B1A4AC3
:1018B0002A63E26B50630A462168E06B091DFEF75C
:1018C000C3FD2068016840680090206948B1206825
:1018D0000C3050E8001F41F4807140E80012002AEB
:1018E000F5D12068143050E8001F41F0010140E8B4
:1018F0000012002AF5D12068143050E8001F41F092
:10190000400140E80012002AF5D1002038BD000057
:10191000B91500083F1600086F15000810B50548F6
:10192000FFF726FABDE81040FF2203490148FFF700
:10193000DBB900004800002018050020FEE7090779
:10194000090E002804DB00F1E02080F80014704745
:1019500000F00F0000F1E02080F8141D704702E055
:1019600008C8121F08C1002AFAD17047704700202A
:1019700001E001C1121F002AFBD1704710B500F031
:10198000E0F8402000F0C9F800F0B8F800F0E8F8FE
:1019900000F0D7F8C02000F0C0F800F0AFF8002445
:1019A000002000F0BAF800F0A9F8641CE4B2062C9C
:1019B000F6D3BDE8104000F0D3B8000070B50C4677
:1019C000054600F0BEF8442000F0A7F800F096F8B5
:1019D00000F0C6F800F0B5F845F0C00000F09DF842
:1019E00000F08CF80448005D00F097F800F086F8ED
:1019F000BDE8704000F0B4B81C00002010B500F045
:101A0000A0F8802000F089F800F078F8BDE81040D8
:101A100000F0A6B810B5044600F093F844F0880032
:101A200000F07BF800F06AF8BDE8104000F098B8CC
:101A300010B5FFF7ACFC00F0BBF8054800F0FCF86F
:101A4000034C20688047E068BDE810400047000074
:101A50003400002008B500EBC00020F0604000908A
:101A600000BF0098411E0091FAD208BD2DE9F04157
:101A700086B0002000900190029003901648816982
:101A800041F0080181618069012200F00800DFF85F
:101A90004C809402049021464046FEF702FE01224B
:101AA000D70239464046FEF7FCFD009401AA1124F6
:101AB0000125022682E8700069464046FEF7FCFCDC
:101AC00001AA009782E8700069464046FEF7F4FCE0
:101AD00006B0BDE8F081000000100240000C01409B
:101AE00010B54FF400610448FEF7D6FD04460A2005
:101AF000FFF7B0FF204610BD000C014010B50120DB
:101B000000F048F8012000F037F8FFF7E9FF04463D
:101B1000002000F031F8204610BD70B500240546C5
:101B2000012606FA04F0284000F034F8012000F005
:101B300023F8002000F020F8641CE4B2082CF0D355
:101B400070BD10B5012000F025F8012000F014F858
:101B5000002000F01FF8BDE81040002000F00CB895
:101B600010B5002000F016F8012000F005F8BDE8DF
:101B70001040012000F00EB810B502464FF480610D
:101B80000348FEF78EFDBDE810400A20FFF762BF54
:101B9000000C014010B502464FF400610348FEF707
:101BA00080FDBDE810400A20FFF754BF000C014043
:101BB00070B586B0002411480094019402940394F7
:101BC000816941F0100181618069012200F01000FB
:101BD0000B4E5503049029463046FEF762FD012066
:101BE0000095CDE901040220039069463046FEF7D6
:101BF00063FC002000F006F806B070BD0010024043
:101C00000010014080F001024FF400510148FEF73E
:101C100048BD000000100140FEF756FDFFF76FFCC5
:101C2000FFF7F6FAFFF7D6FAFFF734FBFFF700FFEE
:101C300000F01CF8FCE70000002809D0054901600D
:101C40000549C16005490161054981600549416057
:101C500070470000691C00087D190008FD19000884
:101C6000BD190008151A0008FFF700BF10B5054C94
:101C700001210020A26890476168BDE8104007205C
:101C80000847000034000020010202030405060793
:101C900008090A0B0C0D0E0F1010000000000000C8
:101CA0000000010203040607080900000000010209
:101CB00003040000D41C00080000002034000000D1
:101CC0005E190008081D000834000020E409000027
:101CD0006E19000801000000100000000000000064
:101CE0000024F400000000000000000000000000DC
:101CF0003F065B4F666D7D077F6F777C395E79713C
:081D00007638373E735C4000A9
:04000005080000ED02
:00000001FF
